{
  "address": "0x5FbDB2315678afecb367f032d93F642f64180aa3",
  "abi": [
    {
      "anonymous": false,
      "inputs": [
        {
          "indexed": true,
          "internalType": "address",
          "name": "previousOwner",
          "type": "address"
        },
        {
          "indexed": true,
          "internalType": "address",
          "name": "newOwner",
          "type": "address"
        }
      ],
      "name": "OwnershipTransferred",
      "type": "event"
    },
    {
      "anonymous": false,
      "inputs": [
        {
          "indexed": true,
          "internalType": "address",
          "name": "tokenAddress",
          "type": "address"
        },
        {
          "indexed": false,
          "internalType": "uint256",
          "name": "amount",
          "type": "uint256"
        }
      ],
      "name": "TokenCreated",
      "type": "event"
    },
    {
      "inputs": [
        {
          "internalType": "string",
          "name": "_name",
          "type": "string"
        },
        {
          "internalType": "string",
          "name": "_symbol",
          "type": "string"
        },
        {
          "internalType": "uint256",
          "name": "_amount",
          "type": "uint256"
        },
        {
          "internalType": "address",
          "name": "_to",
          "type": "address"
        }
      ],
      "name": "createFanToken",
      "outputs": [
        {
          "internalType": "address",
          "name": "",
          "type": "address"
        }
      ],
      "stateMutability": "nonpayable",
      "type": "function"
    },
    {
      "inputs": [],
      "name": "owner",
      "outputs": [
        {
          "internalType": "address",
          "name": "",
          "type": "address"
        }
      ],
      "stateMutability": "view",
      "type": "function"
    },
    {
      "inputs": [],
      "name": "renounceOwnership",
      "outputs": [],
      "stateMutability": "nonpayable",
      "type": "function"
    },
    {
      "inputs": [
        {
          "internalType": "uint256",
          "name": "index",
          "type": "uint256"
        }
      ],
      "name": "token",
      "outputs": [
        {
          "internalType": "address",
          "name": "",
          "type": "address"
        }
      ],
      "stateMutability": "view",
      "type": "function"
    },
    {
      "inputs": [],
      "name": "tokens",
      "outputs": [
        {
          "internalType": "address[]",
          "name": "",
          "type": "address[]"
        }
      ],
      "stateMutability": "view",
      "type": "function"
    },
    {
      "inputs": [
        {
          "internalType": "address",
          "name": "newOwner",
          "type": "address"
        }
      ],
      "name": "transferOwnership",
      "outputs": [],
      "stateMutability": "nonpayable",
      "type": "function"
    }
  ],
  "transactionHash": "0x754997c15998e9608832e6bc683954923a77112d405fb16247e171dcd864466c",
  "args": [],
  "numDeployments": 1,
  "solcInputHash": "464aa17a3562d69f0bef579f1705da8b",
  "bytecode": "0x608060405234801561001057600080fd5b5061001a3361001f565b61006f565b600080546001600160a01b038381166001600160a01b0319831681178455604051919092169283917f8be0079c531659141344cd1fd0a4f28419497f9722a3daafe3b4186f6b6457e09190a35050565b611d898061007e6000396000f3fe60806040523480156200001157600080fd5b50600436106200006a5760003560e01c8063044215c6146200006f578063115a3d6014620000a3578063715018a614620000ba5780638da5cb5b14620000c65780639d63848a14620000d8578063f2fde38b14620000f1575b600080fd5b620000866200008036600462000469565b62000108565b6040516001600160a01b0390911681526020015b60405180910390f35b62000086620000b4366004620004ec565b6200013b565b620000c4620002ca565b005b6000546001600160a01b031662000086565b620000e262000305565b6040516200009a91906200057d565b620000c462000102366004620005cc565b62000369565b600060018281548110620001205762000120620005f1565b6000918252602090912001546001600160a01b031692915050565b600080546001600160a01b03163314620001725760405162461bcd60e51b8152600401620001699062000607565b60405180910390fd5b6001600160a01b03821662000190576000546001600160a01b031691505b6000878787878787604051620001a6906200045b565b620001b79695949392919062000665565b604051809103906000f080158015620001d4573d6000803e3d6000fd5b506001805480820182556000919091527fb10e2d527612073b26eecdfd717e6a320cf44b4afac2b0732d9fcbe2b7fa0cf60180546001600160a01b0319166001600160a01b038316908117909155604080516318160ddd60e01b8152905192935083927f1cef2b4ec7f129e441c961eb4fae22fd3131868db6be990c6f065f35b6b53cf39183916318160ddd916004808201926020929091908290030181865afa15801562000287573d6000803e3d6000fd5b505050506040513d601f19601f82011682018060405250810190620002ad9190620006b4565b60405190815260200160405180910390a298975050505050505050565b6000546001600160a01b03163314620002f75760405162461bcd60e51b8152600401620001699062000607565b6200030360006200040b565b565b606060018054806020026020016040519081016040528092919081815260200182805480156200035f57602002820191906000526020600020905b81546001600160a01b0316815260019091019060200180831162000340575b5050505050905090565b6000546001600160a01b03163314620003965760405162461bcd60e51b8152600401620001699062000607565b6001600160a01b038116620003fd5760405162461bcd60e51b815260206004820152602660248201527f4f776e61626c653a206e6577206f776e657220697320746865207a65726f206160448201526564647265737360d01b606482015260840162000169565b62000408816200040b565b50565b600080546001600160a01b038381166001600160a01b0319831681178455604051919092169283917f8be0079c531659141344cd1fd0a4f28419497f9722a3daafe3b4186f6b6457e09190a35050565b61168580620006cf83390190565b6000602082840312156200047c57600080fd5b5035919050565b60008083601f8401126200049657600080fd5b50813567ffffffffffffffff811115620004af57600080fd5b602083019150836020828501011115620004c857600080fd5b9250929050565b80356001600160a01b0381168114620004e757600080fd5b919050565b600080600080600080608087890312156200050657600080fd5b863567ffffffffffffffff808211156200051f57600080fd5b6200052d8a838b0162000483565b909850965060208901359150808211156200054757600080fd5b506200055689828a0162000483565b909550935050604087013591506200057160608801620004cf565b90509295509295509295565b6020808252825182820181905260009190848201906040850190845b81811015620005c05783516001600160a01b03168352928401929184019160010162000599565b50909695505050505050565b600060208284031215620005df57600080fd5b620005ea82620004cf565b9392505050565b634e487b7160e01b600052603260045260246000fd5b6020808252818101527f4f776e61626c653a2063616c6c6572206973206e6f7420746865206f776e6572604082015260600190565b81835281816020850137506000828201602090810191909152601f909101601f19169091010190565b6080815260006200067b60808301888a6200063c565b8281036020840152620006908187896200063c565b604084019590955250506001600160a01b0391909116606090910152949350505050565b600060208284031215620006c757600080fd5b505191905056fe6101606040527f6e71edae12b1b97f4d1f60370fef10105fa2faae0126114a169c64845d6126c9610140523480156200003757600080fd5b5060405162001685380380620016858339810160408190526200005a9162000312565b6040805180820190915260018152603160f81b6020820152849081908186600362000086838262000435565b50600462000095828262000435565b5050825160209384012082519284019290922060e08390526101008190524660a0818152604080517f8b73c3c69bb8fe3d512ecc4cf759cc79239f7b179b0ffacaa9a75d522b39400f818901819052818301979097526060810194909452608080850193909352308483018190528151808603909301835260c09485019091528151919096012090529290925261012052506200014e9050816200013c6012600a62000616565b6200014890856200062e565b62000158565b505050506200066b565b6001600160a01b038216620001b35760405162461bcd60e51b815260206004820152601f60248201527f45524332303a206d696e7420746f20746865207a65726f206164647265737300604482015260640160405180910390fd5b8060026000828254620001c7919062000650565b90915550506001600160a01b03821660009081526020819052604081208054839290620001f690849062000650565b90915550506040518181526001600160a01b038316906000907fddf252ad1be2c89b69c2b068fc378daa952ba7f163c4a11628f55a4df523b3ef9060200160405180910390a35050565b505050565b634e487b7160e01b600052604160045260246000fd5b600082601f8301126200026d57600080fd5b81516001600160401b03808211156200028a576200028a62000245565b604051601f8301601f19908116603f01168101908282118183101715620002b557620002b562000245565b81604052838152602092508683858801011115620002d257600080fd5b600091505b83821015620002f65785820183015181830184015290820190620002d7565b83821115620003085760008385830101525b9695505050505050565b600080600080608085870312156200032957600080fd5b84516001600160401b03808211156200034157600080fd5b6200034f888389016200025b565b955060208701519150808211156200036657600080fd5b5062000375878288016200025b565b60408701516060880151919550935090506001600160a01b03811681146200039c57600080fd5b939692955090935050565b600181811c90821680620003bc57607f821691505b602082108103620003dd57634e487b7160e01b600052602260045260246000fd5b50919050565b601f8211156200024057600081815260208120601f850160051c810160208610156200040c5750805b601f850160051c820191505b818110156200042d5782815560010162000418565b505050505050565b81516001600160401b0381111562000451576200045162000245565b6200046981620004628454620003a7565b84620003e3565b602080601f831160018114620004a15760008415620004885750858301515b600019600386901b1c1916600185901b1785556200042d565b600085815260208120601f198616915b82811015620004d257888601518255948401946001909101908401620004b1565b5085821015620004f15787850151600019600388901b60f8161c191681555b5050505050600190811b01905550565b634e487b7160e01b600052601160045260246000fd5b600181815b80851115620005585781600019048211156200053c576200053c62000501565b808516156200054a57918102915b93841c93908002906200051c565b509250929050565b600082620005715750600162000610565b81620005805750600062000610565b8160018114620005995760028114620005a457620005c4565b600191505062000610565b60ff841115620005b857620005b862000501565b50506001821b62000610565b5060208310610133831016604e8410600b8410161715620005e9575081810a62000610565b620005f5838362000517565b80600019048211156200060c576200060c62000501565b0290505b92915050565b60006200062760ff84168362000560565b9392505050565b60008160001904831182151516156200064b576200064b62000501565b500290565b6000821982111562000666576200066662000501565b500190565b60805160a05160c05160e051610100516101205161014051610fbf620006c6600039600061047b01526000610999015260006109e8015260006109c30152600061091c01526000610946015260006109700152610fbf6000f3fe608060405234801561001057600080fd5b50600436106100ea5760003560e01c806370a082311161008c578063a457c2d711610066578063a457c2d7146101c3578063a9059cbb146101d6578063d505accf146101e9578063dd62ed3e146101fe57600080fd5b806370a082311461017f5780637ecebe00146101a857806395d89b41146101bb57600080fd5b806323b872dd116100c857806323b872dd14610142578063313ce567146101555780633644e51514610164578063395093511461016c57600080fd5b806306fdde03146100ef578063095ea7b31461010d57806318160ddd14610130575b600080fd5b6100f7610237565b6040516101049190610d7a565b60405180910390f35b61012061011b366004610deb565b6102c9565b6040519015158152602001610104565b6002545b604051908152602001610104565b610120610150366004610e15565b6102e1565b60405160128152602001610104565b610134610305565b61012061017a366004610deb565b610314565b61013461018d366004610e51565b6001600160a01b031660009081526020819052604090205490565b6101346101b6366004610e51565b610353565b6100f7610373565b6101206101d1366004610deb565b610382565b6101206101e4366004610deb565b610419565b6101fc6101f7366004610e73565b610427565b005b61013461020c366004610ee6565b6001600160a01b03918216600090815260016020908152604080832093909416825291909152205490565b60606003805461024690610f19565b80601f016020809104026020016040519081016040528092919081815260200182805461027290610f19565b80156102bf5780601f10610294576101008083540402835291602001916102bf565b820191906000526020600020905b8154815290600101906020018083116102a257829003601f168201915b5050505050905090565b6000336102d781858561058b565b5060019392505050565b6000336102ef8582856106af565b6102fa858585610741565b506001949350505050565b600061030f61090f565b905090565b3360008181526001602090815260408083206001600160a01b03871684529091528120549091906102d7908290869061034e908790610f4d565b61058b565b6001600160a01b0381166000908152600560205260408120545b92915050565b60606004805461024690610f19565b3360008181526001602090815260408083206001600160a01b03871684529091528120549091908381101561040c5760405162461bcd60e51b815260206004820152602560248201527f45524332303a2064656372656173656420616c6c6f77616e63652062656c6f77604482015264207a65726f60d81b60648201526084015b60405180910390fd5b6102fa828686840361058b565b6000336102d7818585610741565b834211156104775760405162461bcd60e51b815260206004820152601d60248201527f45524332305065726d69743a206578706972656420646561646c696e650000006044820152606401610403565b60007f00000000000000000000000000000000000000000000000000000000000000008888886104a68c610a36565b6040805160208101969096526001600160a01b0394851690860152929091166060840152608083015260a082015260c0810186905260e001604051602081830303815290604052805190602001209050600061050182610a5e565b9050600061051182878787610aac565b9050896001600160a01b0316816001600160a01b0316146105745760405162461bcd60e51b815260206004820152601e60248201527f45524332305065726d69743a20696e76616c6964207369676e617475726500006044820152606401610403565b61057f8a8a8a61058b565b50505050505050505050565b6001600160a01b0383166105ed5760405162461bcd60e51b8152602060048201526024808201527f45524332303a20617070726f76652066726f6d20746865207a65726f206164646044820152637265737360e01b6064820152608401610403565b6001600160a01b03821661064e5760405162461bcd60e51b815260206004820152602260248201527f45524332303a20617070726f766520746f20746865207a65726f206164647265604482015261737360f01b6064820152608401610403565b6001600160a01b0383811660008181526001602090815260408083209487168084529482529182902085905590518481527f8c5be1e5ebec7d5bd14f71427d1e84f3dd0314c0f7b2291e5b200ac8c7c3b925910160405180910390a3505050565b6001600160a01b03838116600090815260016020908152604080832093861683529290522054600019811461073b578181101561072e5760405162461bcd60e51b815260206004820152601d60248201527f45524332303a20696e73756666696369656e7420616c6c6f77616e63650000006044820152606401610403565b61073b848484840361058b565b50505050565b6001600160a01b0383166107a55760405162461bcd60e51b815260206004820152602560248201527f45524332303a207472616e736665722066726f6d20746865207a65726f206164604482015264647265737360d81b6064820152608401610403565b6001600160a01b0382166108075760405162461bcd60e51b815260206004820152602360248201527f45524332303a207472616e7366657220746f20746865207a65726f206164647260448201526265737360e81b6064820152608401610403565b6001600160a01b0383166000908152602081905260409020548181101561087f5760405162461bcd60e51b815260206004820152602660248201527f45524332303a207472616e7366657220616d6f756e7420657863656564732062604482015265616c616e636560d01b6064820152608401610403565b6001600160a01b038085166000908152602081905260408082208585039055918516815290812080548492906108b6908490610f4d565b92505081905550826001600160a01b0316846001600160a01b03167fddf252ad1be2c89b69c2b068fc378daa952ba7f163c4a11628f55a4df523b3ef8460405161090291815260200190565b60405180910390a361073b565b6000306001600160a01b037f00000000000000000000000000000000000000000000000000000000000000001614801561096857507f000000000000000000000000000000000000000000000000000000000000000046145b1561099257507f000000000000000000000000000000000000000000000000000000000000000090565b50604080517f00000000000000000000000000000000000000000000000000000000000000006020808301919091527f0000000000000000000000000000000000000000000000000000000000000000828401527f000000000000000000000000000000000000000000000000000000000000000060608301524660808301523060a0808401919091528351808403909101815260c0909201909252805191012090565b6001600160a01b03811660009081526005602052604090208054600181018255905b50919050565b600061036d610a6b61090f565b8360405161190160f01b6020820152602281018390526042810182905260009060620160405160208183030381529060405280519060200120905092915050565b6000806000610abd87878787610ad4565b91509150610aca81610bc1565b5095945050505050565b6000807f7fffffffffffffffffffffffffffffff5d576e7357a4501ddfe92f46681b20a0831115610b0b5750600090506003610bb8565b8460ff16601b14158015610b2357508460ff16601c14155b15610b345750600090506004610bb8565b6040805160008082526020820180845289905260ff881692820192909252606081018690526080810185905260019060a0016020604051602081039080840390855afa158015610b88573d6000803e3d6000fd5b5050604051601f1901519150506001600160a01b038116610bb157600060019250925050610bb8565b9150600090505b94509492505050565b6000816004811115610bd557610bd5610f73565b03610bdd5750565b6001816004811115610bf157610bf1610f73565b03610c3e5760405162461bcd60e51b815260206004820152601860248201527f45434453413a20696e76616c6964207369676e617475726500000000000000006044820152606401610403565b6002816004811115610c5257610c52610f73565b03610c9f5760405162461bcd60e51b815260206004820152601f60248201527f45434453413a20696e76616c6964207369676e6174757265206c656e677468006044820152606401610403565b6003816004811115610cb357610cb3610f73565b03610d0b5760405162461bcd60e51b815260206004820152602260248201527f45434453413a20696e76616c6964207369676e6174757265202773272076616c604482015261756560f01b6064820152608401610403565b6004816004811115610d1f57610d1f610f73565b03610d775760405162461bcd60e51b815260206004820152602260248201527f45434453413a20696e76616c6964207369676e6174757265202776272076616c604482015261756560f01b6064820152608401610403565b50565b600060208083528351808285015260005b81811015610da757858101830151858201604001528201610d8b565b81811115610db9576000604083870101525b50601f01601f1916929092016040019392505050565b80356001600160a01b0381168114610de657600080fd5b919050565b60008060408385031215610dfe57600080fd5b610e0783610dcf565b946020939093013593505050565b600080600060608486031215610e2a57600080fd5b610e3384610dcf565b9250610e4160208501610dcf565b9150604084013590509250925092565b600060208284031215610e6357600080fd5b610e6c82610dcf565b9392505050565b600080600080600080600060e0888a031215610e8e57600080fd5b610e9788610dcf565b9650610ea560208901610dcf565b95506040880135945060608801359350608088013560ff81168114610ec957600080fd5b9699959850939692959460a0840135945060c09093013592915050565b60008060408385031215610ef957600080fd5b610f0283610dcf565b9150610f1060208401610dcf565b90509250929050565b600181811c90821680610f2d57607f821691505b602082108103610a5857634e487b7160e01b600052602260045260246000fd5b60008219821115610f6e57634e487b7160e01b600052601160045260246000fd5b500190565b634e487b7160e01b600052602160045260246000fdfea2646970667358221220b092fc6681ce073caf36de17dc6664b30f19f1d1f8b2b4e2e171d9e69412de4464736f6c634300080f0033a26469706673582212207a96813849526ac8f9bfdc929bf728033409992dd30a7522710a1f9ea8601c9a64736f6c634300080f0033",
  "devdoc": {
    "kind": "dev",
    "methods": {
      "owner()": {
        "details": "Returns the address of the current owner."
      },
      "renounceOwnership()": {
        "details": "Leaves the contract without owner. It will not be possible to call `onlyOwner` functions anymore. Can only be called by the current owner. NOTE: Renouncing ownership will leave the contract without an owner, thereby removing any functionality that is only available to the owner."
      },
      "transferOwnership(address)": {
        "details": "Transfers ownership of the contract to a new account (`newOwner`). Can only be called by the current owner."
      }
    },
    "version": 1
  },
  "userdoc": {
    "kind": "user",
    "methods": {},
    "version": 1
  },
  "storageLayout": {
    "storage": [
      {
        "astId": 1377,
        "contract": "contracts/FanTokenFactory.sol:FanTokenFactory",
        "label": "_owner",
        "offset": 0,
        "slot": "0",
        "type": "t_address"
      },
      {
        "astId": 46,
        "contract": "contracts/FanTokenFactory.sol:FanTokenFactory",
        "label": "_tokens",
        "offset": 0,
        "slot": "1",
        "type": "t_array(t_address)dyn_storage"
      }
    ],
    "types": {
      "t_address": {
        "encoding": "inplace",
        "label": "address",
        "numberOfBytes": "20"
      },
      "t_array(t_address)dyn_storage": {
        "base": "t_address",
        "encoding": "dynamic_array",
        "label": "address[]",
        "numberOfBytes": "32"
      }
    }
  }
}