{
  "address": "0xe2274DfbCaC8f2B8B8e48C80DAAA1b75Df1a216D",
  "abi": [
    {
      "anonymous": false,
      "inputs": [
        {
          "indexed": true,
          "internalType": "address",
          "name": "previousOwner",
          "type": "address"
        },
        {
          "indexed": true,
          "internalType": "address",
          "name": "newOwner",
          "type": "address"
        }
      ],
      "name": "OwnershipTransferred",
      "type": "event"
    },
    {
      "anonymous": false,
      "inputs": [
        {
          "indexed": true,
          "internalType": "address",
          "name": "vestingWalletAddress",
          "type": "address"
        }
      ],
      "name": "VestingWalletCreated",
      "type": "event"
    },
    {
      "inputs": [
        {
          "internalType": "address",
          "name": "_vestingWallet",
          "type": "address"
        }
      ],
      "name": "addVestingWallet",
      "outputs": [],
      "stateMutability": "nonpayable",
      "type": "function"
    },
    {
      "inputs": [
        {
          "internalType": "address",
          "name": "token",
          "type": "address"
        },
        {
          "internalType": "address",
          "name": "beneficiary",
          "type": "address"
        },
        {
          "internalType": "uint64",
          "name": "start",
          "type": "uint64"
        },
        {
          "internalType": "uint16[]",
          "name": "cliff",
          "type": "uint16[]"
        }
      ],
      "name": "createVestingWallet",
      "outputs": [
        {
          "internalType": "address",
          "name": "",
          "type": "address"
        }
      ],
      "stateMutability": "nonpayable",
      "type": "function"
    },
    {
      "inputs": [],
      "name": "owner",
      "outputs": [
        {
          "internalType": "address",
          "name": "",
          "type": "address"
        }
      ],
      "stateMutability": "view",
      "type": "function"
    },
    {
      "inputs": [],
      "name": "registry",
      "outputs": [
        {
          "internalType": "address[]",
          "name": "",
          "type": "address[]"
        }
      ],
      "stateMutability": "view",
      "type": "function"
    },
    {
      "inputs": [
        {
          "internalType": "uint256",
          "name": "index",
          "type": "uint256"
        }
      ],
      "name": "removeVestingWallet",
      "outputs": [],
      "stateMutability": "nonpayable",
      "type": "function"
    },
    {
      "inputs": [],
      "name": "renounceOwnership",
      "outputs": [],
      "stateMutability": "nonpayable",
      "type": "function"
    },
    {
      "inputs": [
        {
          "internalType": "address",
          "name": "newOwner",
          "type": "address"
        }
      ],
      "name": "transferOwnership",
      "outputs": [],
      "stateMutability": "nonpayable",
      "type": "function"
    },
    {
      "inputs": [
        {
          "internalType": "uint256",
          "name": "index",
          "type": "uint256"
        }
      ],
      "name": "vestingWallet",
      "outputs": [
        {
          "internalType": "address",
          "name": "",
          "type": "address"
        }
      ],
      "stateMutability": "view",
      "type": "function"
    }
  ],
  "transactionHash": "0x8171079601f5433c851b7772290ba1cab02ca058c5e5713e71af5ea4e74acfc6",
  "args": [],
  "numDeployments": 1,
  "solcInputHash": "db705135ccbe7eb92853a9700d575f68",
  "bytecode": "0x608060405234801561001057600080fd5b5061001a3361001f565b61006f565b600080546001600160a01b038381166001600160a01b0319831681178455604051919092169283917f8be0079c531659141344cd1fd0a4f28419497f9722a3daafe3b4186f6b6457e09190a35050565b61189c8061007e6000396000f3fe60806040523480156200001157600080fd5b5060043610620000935760003560e01c80638da5cb5b11620000625780638da5cb5b1462000108578063abaa3d13146200011a578063bcc043d41462000131578063f2fde38b146200014857600080fd5b80632b824eb614620000985780635ae0075814620000cc578063715018a614620000e55780637b10399914620000ef575b600080fd5b620000af620000a936600462000697565b6200015f565b6040516001600160a01b0390911681526020015b60405180910390f35b620000e3620000dd366004620006ce565b62000192565b005b620000e36200028c565b620000f9620002c7565b604051620000c39190620006f3565b6000546001600160a01b0316620000af565b620000af6200012b36600462000742565b6200032b565b620000e36200014236600462000697565b62000420565b620000e362000159366004620006ce565b62000597565b600060018281548110620001775762000177620007fa565b6000918252602090912001546001600160a01b031692915050565b6000546001600160a01b03163314620001c85760405162461bcd60e51b8152600401620001bf9062000810565b60405180910390fd5b6001600160a01b0381166200023b5760405162461bcd60e51b815260206004820152603260248201527f56657374696e6757616c6c6574466163746f72793a20746f6b656e20616464726044820152716573732063616e6e6f74206265207a65726f60701b6064820152608401620001bf565b6001805480820182556000919091527fb10e2d527612073b26eecdfd717e6a320cf44b4afac2b0732d9fcbe2b7fa0cf60180546001600160a01b0319166001600160a01b0392909216919091179055565b6000546001600160a01b03163314620002b95760405162461bcd60e51b8152600401620001bf9062000810565b620002c5600062000639565b565b606060018054806020026020016040519081016040528092919081815260200182805480156200032157602002820191906000526020600020905b81546001600160a01b0316815260019091019060200180831162000302575b5050505050905090565b600080546001600160a01b03163314620003595760405162461bcd60e51b8152600401620001bf9062000810565b600086868686866040516200036e9062000689565b6200037e95949392919062000845565b604051809103906000f0801580156200039b573d6000803e3d6000fd5b5060018054808201825560009182527fb10e2d527612073b26eecdfd717e6a320cf44b4afac2b0732d9fcbe2b7fa0cf60180546001600160a01b0319166001600160a01b038416908117909155604051929350839290917f0576628b5e656fe6844985fd91393f2067c6954debdc5ef19aa78c318f654a9f91a2979650505050505050565b6000546001600160a01b031633146200044d5760405162461bcd60e51b8152600401620001bf9062000810565b600154811115620004b55760405162461bcd60e51b815260206004820152602b60248201527f56657374696e6757616c6c6574466163746f72793a20696e646578206973206f60448201526a7574206f662072616e676560a81b6064820152608401620001bf565b805b60018054620004c79190620008de565b8110156200055d576001620004dd8282620008f8565b81548110620004f057620004f0620007fa565b600091825260209091200154600180546001600160a01b0390921691839081106200051f576200051f620007fa565b600091825260209091200180546001600160a01b0319166001600160a01b039290921691909117905580620005548162000913565b915050620004b7565b5060018054806200057257620005726200092f565b600082815260209020810160001990810180546001600160a01b031916905501905550565b6000546001600160a01b03163314620005c45760405162461bcd60e51b8152600401620001bf9062000810565b6001600160a01b0381166200062b5760405162461bcd60e51b815260206004820152602660248201527f4f776e61626c653a206e6577206f776e657220697320746865207a65726f206160448201526564647265737360d01b6064820152608401620001bf565b620006368162000639565b50565b600080546001600160a01b038381166001600160a01b0319831681178455604051919092169283917f8be0079c531659141344cd1fd0a4f28419497f9722a3daafe3b4186f6b6457e09190a35050565b610f21806200094683390190565b600060208284031215620006aa57600080fd5b5035919050565b80356001600160a01b0381168114620006c957600080fd5b919050565b600060208284031215620006e157600080fd5b620006ec82620006b1565b9392505050565b6020808252825182820181905260009190848201906040850190845b81811015620007365783516001600160a01b0316835292840192918401916001016200070f565b50909695505050505050565b6000806000806000608086880312156200075b57600080fd5b6200076686620006b1565b94506200077660208701620006b1565b9350604086013567ffffffffffffffff80821682146200079557600080fd5b90935060608701359080821115620007ac57600080fd5b818801915088601f830112620007c157600080fd5b813581811115620007d157600080fd5b8960208260051b8501011115620007e757600080fd5b9699959850939650602001949392505050565b634e487b7160e01b600052603260045260246000fd5b6020808252818101527f4f776e61626c653a2063616c6c6572206973206e6f7420746865206f776e6572604082015260600190565b6001600160a01b038681168252851660208083019190915267ffffffffffffffff851660408301526080606083018190528201839052600090849060a084019083805b87811015620008b857843561ffff8116808214620008a4578384fd5b855250938201939282019260010162000888565b50919a9950505050505050505050565b634e487b7160e01b600052601160045260246000fd5b600082821015620008f357620008f3620008c8565b500390565b600082198211156200090e576200090e620008c8565b500190565b600060018201620009285762000928620008c8565b5060010190565b634e487b7160e01b600052603160045260246000fdfe60e06040523480156200001157600080fd5b5060405162000f2138038062000f2183398101604081905262000034916200031b565b6001600160a01b0384166200009c5760405162461bcd60e51b815260206004820152602360248201527f56657374696e6757616c6c65743a20746f6b656e206973207a65726f2061646460448201526272657360e81b60648201526084015b60405180910390fd5b6001600160a01b038316620001075760405162461bcd60e51b815260206004820152602a60248201527f56657374696e6757616c6c65743a2062656e6566696369617279206973207a65604482015269726f206164647265737360b01b606482015260840162000093565b6200011281620001a6565b620001605760405162461bcd60e51b815260206004820181905260248201527f56657374696e6757616c6c65743a20636c696666206973206e6f742031303025604482015260640162000093565b6001600160a01b03808516608052831660a052811562000181578162000183565b425b60c05280516200019b9060009060208401906200020e565b505050505062000496565b60008060005b83518161ffff161015620001ff57838161ffff1681518110620001d357620001d36200041d565b602002602001015182620001e8919062000449565b915080620001f68162000472565b915050620001ac565b5061ffff166127101492915050565b82805482825590600052602060002090600f01601090048101928215620002ac5791602002820160005b838211156200027a57835183826101000a81548161ffff021916908361ffff160217905550926020019260020160208160010104928301926001030262000238565b8015620002aa5782816101000a81549061ffff02191690556002016020816001010492830192600103026200027a565b505b50620002ba929150620002be565b5090565b5b80821115620002ba5760008155600101620002bf565b80516001600160a01b0381168114620002ed57600080fd5b919050565b634e487b7160e01b600052604160045260246000fd5b805161ffff81168114620002ed57600080fd5b600080600080608085870312156200033257600080fd5b6200033d85620002d5565b935060206200034e818701620002d5565b6040870151606088015191955093506001600160401b03808211156200037357600080fd5b818801915088601f8301126200038857600080fd5b8151818111156200039d576200039d620002f2565b8060051b604051601f19603f83011681018181108582111715620003c557620003c5620002f2565b60405291825284820192508381018501918b831115620003e457600080fd5b938501935b828510156200040d57620003fd8562000308565b84529385019392850192620003e9565b989b979a50959850505050505050565b634e487b7160e01b600052603260045260246000fd5b634e487b7160e01b600052601160045260246000fd5b600061ffff80831681851680830382111562000469576200046962000433565b01949350505050565b600061ffff8083168181036200048c576200048c62000433565b6001019392505050565b60805160a05160c051610a39620004e8600039600081816101230152818161028a015261044d01526000818160cf01526103d20152600081816101530152818161020f01526103b00152610a396000f3fe608060405234801561001057600080fd5b50600436106100935760003560e01c806386d1a69f1161006657806386d1a69f1461010f5780639613252114610119578063be9a655514610121578063d5999a5c14610147578063fc0c546a1461015157600080fd5b806313d033c01461009857806314e85467146100b657806338af3eed146100cd57806375172a8b14610107575b600080fd5b6100a0610177565b6040516100ad9190610835565b60405180910390f35b6100bf61271081565b6040519081526020016100ad565b7f00000000000000000000000000000000000000000000000000000000000000005b6040516001600160a01b0390911681526020016100ad565b6100bf6101f7565b610117610287565b005b6001546100bf565b7f00000000000000000000000000000000000000000000000000000000000000006100bf565b6100bf62281ac081565b7f00000000000000000000000000000000000000000000000000000000000000006100ef565b606060008054806020026020016040519081016040528092919081815260200182805480156101ed57602002820191906000526020600020906000905b82829054906101000a900461ffff1661ffff16815260200190600201906020826001010492830192600103820291508084116101b45790505b5050505050905090565b6040516370a0823160e01b81523060048201526000907f00000000000000000000000000000000000000000000000000000000000000006001600160a01b0316906370a0823190602401602060405180830381865afa15801561025e573d6000803e3d6000fd5b505050506040513d601f19601f82011682018060405250810190610282919061087d565b905090565b427f00000000000000000000000000000000000000000000000000000000000000001061030d5760405162461bcd60e51b815260206004820152602960248201527f56657374696e6757616c6c65743a2076657374696e67206973206e6f74207374604482015268185c9d1959081e595d60ba1b60648201526084015b60405180910390fd5b600080610318610446565b9150915060008261ffff161180610333575060008161ffff16115b61038a5760405162461bcd60e51b815260206004820152602260248201527f56657374696e6757616c6c65743a206e6f7468696e6720746f20776974686472604482015261617760f01b6064820152608401610304565b60006103a18361ffff1661039c6101f7565b6104f5565b90506103f76001600160a01b037f0000000000000000000000000000000000000000000000000000000000000000167f00000000000000000000000000000000000000000000000000000000000000008361058b565b806001600082825461040991906108ac565b90915550506040518181527f059ea9d6426bbae6ac9c53283977ee93577f8e299e1f7d7314b3d23eecfb2b089060200160405180910390a1505050565b60008080807f00000000000000000000000000000000000000000000000000000000000000005b60005461ffff831610156104eb5761048862281ac0826108ac565b90504281116104eb5760008261ffff16815481106104a8576104a86108c4565b90600052602060002090601091828204019190066002029054906101000a900461ffff16836104d791906108da565b9250816104e381610900565b92505061046d565b5090939092509050565b60006127108363ffffffff1611156105675760405162461bcd60e51b815260206004820152602f60248201527f56657374696e6757616c6c65743a20746f74616c20736861726520697320677260448201526e6561746572207468616e203130302560881b6064820152608401610304565b63ffffffff831661057a61271084610921565b6105849190610943565b9392505050565b604080516001600160a01b038416602482015260448082018490528251808303909101815260649091019091526020810180516001600160e01b031663a9059cbb60e01b1790526105dd9084906105e2565b505050565b6000610637826040518060400160405280602081526020017f5361666545524332303a206c6f772d6c6576656c2063616c6c206661696c6564815250856001600160a01b03166106b49092919063ffffffff16565b8051909150156105dd57808060200190518101906106559190610962565b6105dd5760405162461bcd60e51b815260206004820152602a60248201527f5361666545524332303a204552433230206f7065726174696f6e20646964206e6044820152691bdd081cdd58d8d9595960b21b6064820152608401610304565b60606106c384846000856106cb565b949350505050565b60608247101561072c5760405162461bcd60e51b815260206004820152602660248201527f416464726573733a20696e73756666696369656e742062616c616e636520666f6044820152651c8818d85b1b60d21b6064820152608401610304565b6001600160a01b0385163b6107835760405162461bcd60e51b815260206004820152601d60248201527f416464726573733a2063616c6c20746f206e6f6e2d636f6e74726163740000006044820152606401610304565b600080866001600160a01b0316858760405161079f91906109b4565b60006040518083038185875af1925050503d80600081146107dc576040519150601f19603f3d011682016040523d82523d6000602084013e6107e1565b606091505b50915091506107f18282866107fc565b979650505050505050565b6060831561080b575081610584565b82511561081b5782518084602001fd5b8160405162461bcd60e51b815260040161030491906109d0565b6020808252825182820181905260009190848201906040850190845b8181101561087157835161ffff1683529284019291840191600101610851565b50909695505050505050565b60006020828403121561088f57600080fd5b5051919050565b634e487b7160e01b600052601160045260246000fd5b600082198211156108bf576108bf610896565b500190565b634e487b7160e01b600052603260045260246000fd5b600061ffff8083168185168083038211156108f7576108f7610896565b01949350505050565b600061ffff80831681810361091757610917610896565b6001019392505050565b60008261093e57634e487b7160e01b600052601260045260246000fd5b500490565b600081600019048311821515161561095d5761095d610896565b500290565b60006020828403121561097457600080fd5b8151801515811461058457600080fd5b60005b8381101561099f578181015183820152602001610987565b838111156109ae576000848401525b50505050565b600082516109c6818460208701610984565b9190910192915050565b60208152600082518060208401526109ef816040850160208701610984565b601f01601f1916919091016040019291505056fea2646970667358221220e4f9defd7b91a395023c7007e0500b68cbd17a7793469008bdd9fa5aed5acc1e64736f6c634300080f0033a2646970667358221220d99dbf6a1d5b9e283c20e7adc3e59c309967794a6f65a4383960a3161f391bc764736f6c634300080f0033",
  "devdoc": {
    "author": "Alexey Eramasov",
    "details": "This contract handles the creation and registration of new VestingWallet contracts.",
    "kind": "dev",
    "methods": {
      "owner()": {
        "details": "Returns the address of the current owner."
      },
      "renounceOwnership()": {
        "details": "Leaves the contract without owner. It will not be possible to call `onlyOwner` functions anymore. Can only be called by the current owner. NOTE: Renouncing ownership will leave the contract without an owner, thereby removing any functionality that is only available to the owner."
      },
      "transferOwnership(address)": {
        "details": "Transfers ownership of the contract to a new account (`newOwner`). Can only be called by the current owner."
      }
    },
    "title": "VestingWalletFactory",
    "version": 1
  },
  "userdoc": {
    "kind": "user",
    "methods": {},
    "version": 1
  },
  "storageLayout": {
    "storage": [
      {
        "astId": 1517,
        "contract": "contracts/VestingWalletFactory.sol:VestingWalletFactory",
        "label": "_owner",
        "offset": 0,
        "slot": "0",
        "type": "t_address"
      },
      {
        "astId": 605,
        "contract": "contracts/VestingWalletFactory.sol:VestingWalletFactory",
        "label": "_registry",
        "offset": 0,
        "slot": "1",
        "type": "t_array(t_address)dyn_storage"
      }
    ],
    "types": {
      "t_address": {
        "encoding": "inplace",
        "label": "address",
        "numberOfBytes": "20"
      },
      "t_array(t_address)dyn_storage": {
        "base": "t_address",
        "encoding": "dynamic_array",
        "label": "address[]",
        "numberOfBytes": "32"
      }
    }
  }
}